{
  "contractName": "EtherLibrary",
  "abi": [
    {
      "inputs": [],
      "payable": false,
      "stateMutability": "nonpayable",
      "type": "constructor"
    },
    {
      "constant": true,
      "inputs": [
        {
          "internalType": "uint256",
          "name": "",
          "type": "uint256"
        }
      ],
      "name": "Books",
      "outputs": [
        {
          "internalType": "uint256",
          "name": "id",
          "type": "uint256"
        },
        {
          "internalType": "string",
          "name": "detail",
          "type": "string"
        }
      ],
      "payable": false,
      "stateMutability": "view",
      "type": "function"
    },
    {
      "constant": true,
      "inputs": [
        {
          "internalType": "uint256",
          "name": "",
          "type": "uint256"
        }
      ],
      "name": "Records",
      "outputs": [
        {
          "internalType": "uint256",
          "name": "id",
          "type": "uint256"
        },
        {
          "internalType": "string",
          "name": "detail",
          "type": "string"
        }
      ],
      "payable": false,
      "stateMutability": "view",
      "type": "function"
    },
    {
      "constant": true,
      "inputs": [
        {
          "internalType": "uint256",
          "name": "",
          "type": "uint256"
        }
      ],
      "name": "Users",
      "outputs": [
        {
          "internalType": "uint256",
          "name": "id",
          "type": "uint256"
        },
        {
          "internalType": "string",
          "name": "detail",
          "type": "string"
        }
      ],
      "payable": false,
      "stateMutability": "view",
      "type": "function"
    },
    {
      "constant": true,
      "inputs": [],
      "name": "getAdmin",
      "outputs": [
        {
          "internalType": "string",
          "name": "",
          "type": "string"
        }
      ],
      "payable": false,
      "stateMutability": "view",
      "type": "function"
    },
    {
      "constant": false,
      "inputs": [
        {
          "internalType": "string",
          "name": "update_data",
          "type": "string"
        }
      ],
      "name": "updateAdmin",
      "outputs": [
        {
          "internalType": "bool",
          "name": "",
          "type": "bool"
        }
      ],
      "payable": false,
      "stateMutability": "nonpayable",
      "type": "function"
    },
    {
      "constant": true,
      "inputs": [],
      "name": "getUsers",
      "outputs": [
        {
          "components": [
            {
              "internalType": "uint256",
              "name": "id",
              "type": "uint256"
            },
            {
              "internalType": "string",
              "name": "detail",
              "type": "string"
            }
          ],
          "internalType": "struct EtherLibrary.lib[]",
          "name": "",
          "type": "tuple[]"
        }
      ],
      "payable": false,
      "stateMutability": "view",
      "type": "function"
    },
    {
      "constant": false,
      "inputs": [
        {
          "internalType": "string",
          "name": "add_data",
          "type": "string"
        }
      ],
      "name": "addUser",
      "outputs": [
        {
          "internalType": "bool",
          "name": "",
          "type": "bool"
        }
      ],
      "payable": false,
      "stateMutability": "nonpayable",
      "type": "function"
    },
    {
      "constant": false,
      "inputs": [
        {
          "internalType": "uint256",
          "name": "update_id",
          "type": "uint256"
        },
        {
          "internalType": "string",
          "name": "update_data",
          "type": "string"
        }
      ],
      "name": "updateUser",
      "outputs": [
        {
          "internalType": "bool",
          "name": "",
          "type": "bool"
        }
      ],
      "payable": false,
      "stateMutability": "nonpayable",
      "type": "function"
    },
    {
      "constant": false,
      "inputs": [
        {
          "internalType": "uint256",
          "name": "del_id",
          "type": "uint256"
        }
      ],
      "name": "delUser",
      "outputs": [
        {
          "internalType": "bool",
          "name": "",
          "type": "bool"
        }
      ],
      "payable": false,
      "stateMutability": "nonpayable",
      "type": "function"
    },
    {
      "constant": true,
      "inputs": [],
      "name": "getBooks",
      "outputs": [
        {
          "components": [
            {
              "internalType": "uint256",
              "name": "id",
              "type": "uint256"
            },
            {
              "internalType": "string",
              "name": "detail",
              "type": "string"
            }
          ],
          "internalType": "struct EtherLibrary.lib[]",
          "name": "",
          "type": "tuple[]"
        }
      ],
      "payable": false,
      "stateMutability": "view",
      "type": "function"
    },
    {
      "constant": false,
      "inputs": [
        {
          "internalType": "string",
          "name": "add_data",
          "type": "string"
        }
      ],
      "name": "addBook",
      "outputs": [
        {
          "internalType": "bool",
          "name": "",
          "type": "bool"
        }
      ],
      "payable": false,
      "stateMutability": "nonpayable",
      "type": "function"
    },
    {
      "constant": false,
      "inputs": [
        {
          "internalType": "uint256",
          "name": "update_id",
          "type": "uint256"
        },
        {
          "internalType": "string",
          "name": "update_data",
          "type": "string"
        }
      ],
      "name": "updateBook",
      "outputs": [
        {
          "internalType": "bool",
          "name": "",
          "type": "bool"
        }
      ],
      "payable": false,
      "stateMutability": "nonpayable",
      "type": "function"
    },
    {
      "constant": false,
      "inputs": [
        {
          "internalType": "uint256",
          "name": "del_id",
          "type": "uint256"
        }
      ],
      "name": "delBook",
      "outputs": [
        {
          "internalType": "bool",
          "name": "",
          "type": "bool"
        }
      ],
      "payable": false,
      "stateMutability": "nonpayable",
      "type": "function"
    },
    {
      "constant": true,
      "inputs": [],
      "name": "getRecords",
      "outputs": [
        {
          "components": [
            {
              "internalType": "uint256",
              "name": "id",
              "type": "uint256"
            },
            {
              "internalType": "string",
              "name": "detail",
              "type": "string"
            }
          ],
          "internalType": "struct EtherLibrary.lib[]",
          "name": "",
          "type": "tuple[]"
        }
      ],
      "payable": false,
      "stateMutability": "view",
      "type": "function"
    },
    {
      "constant": false,
      "inputs": [
        {
          "internalType": "string",
          "name": "add_data",
          "type": "string"
        }
      ],
      "name": "addRecord",
      "outputs": [
        {
          "internalType": "bool",
          "name": "",
          "type": "bool"
        }
      ],
      "payable": false,
      "stateMutability": "nonpayable",
      "type": "function"
    }
  ],
  "bytecode": "0x60806040523480156200001157600080fd5b506040518060600160405280602e815260200162001907602e913960009080519060200190620000439291906200015a565b5060016040518060400160405280600081526020016040518060600160405280602e815260200162001935602e913981525090806001815401808255809150509060018203906000526020600020906002020160009091929091909150600082015181600001556020820151816001019080519060200190620000c8929190620001e1565b5050505060026040518060400160405280600081526020016040518060600160405280602e8152602001620018d9602e91398152509080600181540180825580915050906001820390600052602060002090600202016000909192909190915060008201518160000155602082015181600101908051906020019062000150929190620001e1565b5050505062000290565b828054600181600116156101000203166002900490600052602060002090601f016020900481019282601f106200019d57805160ff1916838001178555620001ce565b82800160010185558215620001ce579182015b82811115620001cd578251825591602001919060010190620001b0565b5b509050620001dd919062000268565b5090565b828054600181600116156101000203166002900490600052602060002090601f016020900481019282601f106200022457805160ff191683800117855562000255565b8280016001018555821562000255579182015b828111156200025457825182559160200191906001019062000237565b5b50905062000264919062000268565b5090565b6200028d91905b80821115620002895760008160009055506001016200026f565b5090565b90565b61163980620002a06000396000f3fe608060405234801561001057600080fd5b50600436106100f45760003560e01c806351585695116100975780639f349789116100665780639f349789146102d6578063bed88208146102f4578063d81aa8c414610324578063d85340e714610354576100f4565b8063515856951461023957806366da29a2146102695780636e9960c31461029a5780638eff3c29146102b8576100f4565b806328f25ca5116100d357806328f25ca5146101785780632f7e36ac146101a95780633bc5f48a146101d95780633ef111b614610209576100f4565b8062ce8e3e146100f957806318b8275a146101175780631e98fd1c14610147575b600080fd5b610101610384565b60405161010e919061141d565b60405180910390f35b610131600480360361012c91908101906111c1565b61048f565b60405161013e919061143f565b60405180910390f35b610161600480360361015c9190810190611202565b61054b565b60405161016f92919061147c565b60405180910390f35b610192600480360361018d9190810190611202565b610614565b6040516101a092919061147c565b60405180910390f35b6101c360048036036101be9190810190611202565b6106dd565b6040516101d0919061143f565b60405180910390f35b6101f360048036036101ee91908101906111c1565b6107f7565b604051610200919061143f565b60405180910390f35b610223600480360361021e9190810190611202565b6108b8565b604051610230919061143f565b60405180910390f35b610253600480360361024e919081019061122b565b6109d6565b604051610260919061143f565b60405180910390f35b610283600480360361027e9190810190611202565b610a6d565b60405161029192919061147c565b60405180910390f35b6102a2610b36565b6040516102af919061145a565b60405180910390f35b6102c0610bd8565b6040516102cd919061141d565b60405180910390f35b6102de610ce3565b6040516102eb919061141d565b60405180910390f35b61030e600480360361030991908101906111c1565b610dee565b60405161031b919061143f565b60405180910390f35b61033e600480360361033991908101906111c1565b610e10565b60405161034b919061143f565b60405180910390f35b61036e6004803603610369919081019061122b565b610ecd565b60405161037b919061143f565b60405180910390f35b60606001805480602002602001604051908101604052809291908181526020016000905b82821015610486578382906000526020600020906002020160405180604001604052908160008201548152602001600182018054600181600116156101000203166002900480601f01602080910402602001604051908101604052809291908181526020018280546001816001161561010002031660029004801561046e5780601f106104435761010080835404028352916020019161046e565b820191906000526020600020905b81548152906001019060200180831161045157829003601f168201915b505050505081525050815260200190600101906103a8565b50505050905090565b60008060018054905090506000808214156104ad57600090506104d4565b60018060018403815481106104be57fe5b9060005260206000209060020201600001540190505b60016040518060400160405280838152602001868152509080600181540180825580915050906001820390600052602060002090600202016000909192909190915060008201518160000155602082015181600101908051906020019061053c929190610f64565b50505050600192505050919050565b6001818154811061055857fe5b9060005260206000209060020201600091509050806000015490806001018054600181600116156101000203166002900480601f01602080910402602001604051908101604052809291908181526020018280546001816001161561010002031660029004801561060a5780601f106105df5761010080835404028352916020019161060a565b820191906000526020600020905b8154815290600101906020018083116105ed57829003601f168201915b5050505050905082565b6002818154811061062157fe5b9060005260206000209060020201600091509050806000015490806001018054600181600116156101000203166002900480601f0160208091040260200160405190810160405280929190818152602001828054600181600116156101000203166002900480156106d35780601f106106a8576101008083540402835291602001916106d3565b820191906000526020600020905b8154815290600101906020018083116106b657829003601f168201915b5050505050905082565b600060018054905082106106f457600090506107f2565b60008290505b60018080549050038110156107745760018082018154811061071857fe5b90600052602060002090600202016001016001828154811061073657fe5b90600052602060002090600202016001019080546001816001161561010002031660029004610766929190610fe4565b5080806001019150506106fa565b506001808080549050038154811061078857fe5b90600052602060002090600202016000808201600090556001820160006107af919061106b565b505060018054806107bc57fe5b60019003818190600052602060002090600202016000808201600090556001820160006107e9919061106b565b50509055600190505b919050565b6000806002805490509050600080905060008214156108195760009050610841565b60016002600184038154811061082b57fe5b9060005260206000209060020201600001540190505b6002604051806040016040528083815260200186815250908060018154018082558091505090600182039060005260206000209060020201600090919290919091506000820151816000015560208201518160010190805190602001906108a9929190610f64565b50505050600192505050919050565b600060028054905082106108cf57600090506109d1565b60008290505b60016002805490500381101561095157600260018201815481106108f557fe5b90600052602060002090600202016001016002828154811061091357fe5b90600052602060002090600202016001019080546001816001161561010002031660029004610943929190610fe4565b5080806001019150506108d5565b5060026001600280549050038154811061096757fe5b906000526020600020906002020160008082016000905560018201600061098e919061106b565b5050600280548061099b57fe5b60019003818190600052602060002090600202016000808201600090556001820160006109c8919061106b565b50509055600190505b919050565b600080600280549050905060008090505b81811015610a605784600282815481106109fd57fe5b9060005260206000209060020201600001541415610a53578360028281548110610a2357fe5b90600052602060002090600202016001019080519060200190610a479291906110b3565b50600192505050610a67565b80806001019150506109e7565b5060009150505b92915050565b60038181548110610a7a57fe5b9060005260206000209060020201600091509050806000015490806001018054600181600116156101000203166002900480601f016020809104026020016040519081016040528092919081815260200182805460018160011615610100020316600290048015610b2c5780601f10610b0157610100808354040283529160200191610b2c565b820191906000526020600020905b815481529060010190602001808311610b0f57829003601f168201915b5050505050905082565b606060008054600181600116156101000203166002900480601f016020809104026020016040519081016040528092919081815260200182805460018160011615610100020316600290048015610bce5780601f10610ba357610100808354040283529160200191610bce565b820191906000526020600020905b815481529060010190602001808311610bb157829003601f168201915b5050505050905090565b60606003805480602002602001604051908101604052809291908181526020016000905b82821015610cda578382906000526020600020906002020160405180604001604052908160008201548152602001600182018054600181600116156101000203166002900480601f016020809104026020016040519081016040528092919081815260200182805460018160011615610100020316600290048015610cc25780601f10610c9757610100808354040283529160200191610cc2565b820191906000526020600020905b815481529060010190602001808311610ca557829003601f168201915b50505050508152505081526020019060010190610bfc565b50505050905090565b60606002805480602002602001604051908101604052809291908181526020016000905b82821015610de5578382906000526020600020906002020160405180604001604052908160008201548152602001600182018054600181600116156101000203166002900480601f016020809104026020016040519081016040528092919081815260200182805460018160011615610100020316600290048015610dcd5780601f10610da257610100808354040283529160200191610dcd565b820191906000526020600020905b815481529060010190602001808311610db057829003601f168201915b50505050508152505081526020019060010190610d07565b50505050905090565b60008160009080519060200190610e069291906110b3565b5060019050919050565b6000806003805490509050600080821415610e2e5760009050610e56565b600160036001840381548110610e4057fe5b9060005260206000209060020201600001540190505b600360405180604001604052808381526020018681525090806001815401808255809150509060018203906000526020600020906002020160009091929091909150600082015181600001556020820151816001019080519060200190610ebe929190610f64565b50505050600192505050919050565b600080600180549050905060008090505b81811015610f57578460018281548110610ef457fe5b9060005260206000209060020201600001541415610f4a578360018281548110610f1a57fe5b90600052602060002090600202016001019080519060200190610f3e9291906110b3565b50600192505050610f5e565b8080600101915050610ede565b5060009150505b92915050565b828054600181600116156101000203166002900490600052602060002090601f016020900481019282601f10610fa557805160ff1916838001178555610fd3565b82800160010185558215610fd3579182015b82811115610fd2578251825591602001919060010190610fb7565b5b509050610fe09190611133565b5090565b828054600181600116156101000203166002900490600052602060002090601f016020900481019282601f1061101d578054855561105a565b8280016001018555821561105a57600052602060002091601f016020900482015b8281111561105957825482559160010191906001019061103e565b5b5090506110679190611133565b5090565b50805460018160011615610100020316600290046000825580601f1061109157506110b0565b601f0160209004906000526020600020908101906110af9190611133565b5b50565b828054600181600116156101000203166002900490600052602060002090601f016020900481019282601f106110f457805160ff1916838001178555611122565b82800160010185558215611122579182015b82811115611121578251825591602001919060010190611106565b5b50905061112f9190611133565b5090565b61115591905b80821115611151576000816000905550600101611139565b5090565b90565b600082601f83011261116957600080fd5b813561117c611177826114d9565b6114ac565b9150808252602083016020830185838301111561119857600080fd5b6111a383828461158c565b50505092915050565b6000813590506111bb816115df565b92915050565b6000602082840312156111d357600080fd5b600082013567ffffffffffffffff8111156111ed57600080fd5b6111f984828501611158565b91505092915050565b60006020828403121561121457600080fd5b6000611222848285016111ac565b91505092915050565b6000806040838503121561123e57600080fd5b600061124c858286016111ac565b925050602083013567ffffffffffffffff81111561126957600080fd5b61127585828601611158565b9150509250929050565b600061128b83836113c2565b905092915050565b600061129e82611515565b6112a88185611543565b9350836020820285016112ba85611505565b8060005b858110156112f657848403895281516112d7858261127f565b94506112e283611536565b925060208a019950506001810190506112be565b50829750879550505050505092915050565b61131181611576565b82525050565b60006113228261152b565b61132c8185611565565b935061133c81856020860161159b565b611345816115ce565b840191505092915050565b600061135b82611520565b6113658185611554565b935061137581856020860161159b565b61137e816115ce565b840191505092915050565b600061139482611520565b61139e8185611565565b93506113ae81856020860161159b565b6113b7816115ce565b840191505092915050565b60006040830160008301516113da60008601826113ff565b50602083015184820360208601526113f28282611350565b9150508091505092915050565b61140881611582565b82525050565b61141781611582565b82525050565b600060208201905081810360008301526114378184611293565b905092915050565b60006020820190506114546000830184611308565b92915050565b600060208201905081810360008301526114748184611317565b905092915050565b6000604082019050611491600083018561140e565b81810360208301526114a38184611389565b90509392505050565b6000604051905081810181811067ffffffffffffffff821117156114cf57600080fd5b8060405250919050565b600067ffffffffffffffff8211156114f057600080fd5b601f19601f8301169050602081019050919050565b6000819050602082019050919050565b600081519050919050565b600081519050919050565b600081519050919050565b6000602082019050919050565b600082825260208201905092915050565b600082825260208201905092915050565b600082825260208201905092915050565b60008115159050919050565b6000819050919050565b82818337600083830152505050565b60005b838110156115b957808201518184015260208101905061159e565b838111156115c8576000848401525b50505050565b6000601f19601f8301169050919050565b6115e881611582565b81146115f357600080fd5b5056fea365627a7a7231582076ee3761d7b9954f316e7230f98e4dbc828325c1795e865b8e190beea8fa04136c6578706572696d656e74616cf564736f6c63430005100040516d5a357954364b376d72396a5a7469637378576158577466757a366d443869686e6a504b47516b75397a55364c516d4e696e78547354426d365a7a4e38434e326d634e6a535075695a34376e455351726e727070534b3273534e42516d6475706546744e5939435a63554a32553667473831464a695539646732385177467a64587a4d637343773569",
  "source": "// SPDX-License-Identifier: MIT\npragma solidity >=0.4.21 <8.10.0;\npragma experimental ABIEncoderV2;\n\ncontract EtherLibrary {\n    string admin_detail;      // admin\n    struct lib {\n        uint id;\n        string detail;\n    }\n    lib[] public Users;\n    lib[] public Books;\n    lib[] public Records;\n\n    constructor() public {\n        admin_detail = 'QmNinxTsTBm6ZzN8CN2mcNjSPuiZ47nESQrnrppSK2sSNB';\n        Users.push(lib({id: 0, detail: 'QmdupeFtNY9CZcUJ2U6gG81FJiU9dg28QwFzdXzMcsCw5i'}));\n        Books.push(lib({id: 0, detail: 'QmZ5yT6K7mr9jZticsxWaXWtfuz6mD8ihnjPKGQku9zU6L'}));\n    }\n\n    function getAdmin() public view returns(string memory) {\n        return admin_detail;\n    }\n\n    function updateAdmin(string memory update_data) public returns(bool){\n        admin_detail = update_data;\n        return true;\n    }\n\n    function getUsers() public view returns(lib[] memory) {\n        return Users;\n    }\n    \n    function addUser(string memory add_data) public returns(bool) {\n        uint len = Users.length;\n        uint tmp_id;\n        if(len == 0){\n            tmp_id = 0;\n        }\n        else{\n            tmp_id = Users[len-1].id + 1;\n        }\n        Users.push(lib({id: tmp_id, detail: add_data}));\n        return true;\n    }\n\n    function updateUser(uint update_id, string memory update_data) public returns(bool) {\n        uint len = Users.length;\n        for(uint i=0; i<len; i++){\n            if(Users[i].id == update_id){\n                Users[i].detail = update_data;\n                return true;\n            }\n        }\n        return false;\n    }\n\n    function delUser(uint del_id) public returns(bool) {\n        if(del_id >= Users.length) return false;\n        for(uint i = del_id; i < Users.length-1; i++){\n            Users[i].detail = Users[i+1].detail;\n        }\n        delete Users[Users.length-1];\n        Users.pop();\n        return true;\n    }\n\n    function getBooks() public view returns(lib[] memory) {\n        return Books;\n    }\n\n    function addBook(string memory add_data) public returns(bool) {\n        uint len = Books.length;\n        uint tmp_id = 0;\n        if(len == 0){\n            tmp_id = 0;\n        }\n        else{\n            tmp_id = Books[len-1].id + 1;\n        }\n        Books.push(lib({id: tmp_id, detail: add_data}));\n        return true;\n    }\n\n    function updateBook(uint update_id, string memory update_data) public returns(bool) {\n        uint len = Books.length;\n        for(uint i=0; i<len; i++){\n            if(Books[i].id == update_id){\n                Books[i].detail = update_data;\n                return true;\n            }\n        }\n        return false;\n    }\n\n    function delBook(uint del_id) public returns(bool) {\n        if(del_id >= Books.length) return false;\n        for(uint i = del_id; i < Books.length-1; i++){\n            Books[i].detail = Books[i+1].detail;\n        }\n        delete Books[Books.length-1];\n        Books.pop();\n        return true;\n    }\n\n    function getRecords() public view returns(lib[] memory) {\n        return Records;\n    }\n\n    function addRecord(string memory add_data) public returns(bool) {\n        uint len = Records.length;\n        uint tmp_id;\n         if(len == 0){\n            tmp_id = 0;\n        }\n        else{\n            tmp_id =Records[len-1].id + 1;\n        }\n        Records.push(lib({id: tmp_id, detail: add_data}));\n        return true;\n    }\n\n}",
  "sourcePath": "/root/dapp/truffle/react-unbox/contracts/EtherLibrary.sol",
  "compiler": {
    "name": "solc",
    "version": "0.5.16+commit.9c3226ce.Emscripten.clang"
  },
  "schemaVersion": "3.4.5",
  "updatedAt": "2022-05-29T12:59:10.511Z",
  "networkType": "ethereum",
  "devdoc": {
    "methods": {}
  },
  "userdoc": {
    "methods": {}
  }
}